{
  "abi": [
    {
      "inputs": [
        {
          "internalType": "uint256",
          "name": "_age",
          "type": "uint256"
        },
        {
          "internalType": "string",
          "name": "_name",
          "type": "string"
        }
      ],
      "name": "addUser",
      "outputs": [],
      "stateMutability": "nonpayable",
      "type": "function"
    },
    {
      "inputs": [
        {
          "internalType": "string",
          "name": "",
          "type": "string"
        }
      ],
      "name": "nameToAge",
      "outputs": [
        {
          "internalType": "uint256",
          "name": "",
          "type": "uint256"
        }
      ],
      "stateMutability": "view",
      "type": "function"
    },
    {
      "inputs": [],
      "name": "person1",
      "outputs": [
        {
          "internalType": "uint256",
          "name": "age",
          "type": "uint256"
        },
        {
          "internalType": "string",
          "name": "name",
          "type": "string"
        }
      ],
      "stateMutability": "view",
      "type": "function"
    },
    {
      "inputs": [],
      "name": "retrive",
      "outputs": [
        {
          "internalType": "uint256",
          "name": "",
          "type": "uint256"
        }
      ],
      "stateMutability": "view",
      "type": "function"
    },
    {
      "inputs": [
        {
          "internalType": "uint256",
          "name": "_fav_num_",
          "type": "uint256"
        }
      ],
      "name": "store",
      "outputs": [
        {
          "internalType": "uint256",
          "name": "",
          "type": "uint256"
        }
      ],
      "stateMutability": "nonpayable",
      "type": "function"
    },
    {
      "inputs": [
        {
          "internalType": "uint256",
          "name": "",
          "type": "uint256"
        }
      ],
      "name": "unique",
      "outputs": [
        {
          "internalType": "uint256",
          "name": "age",
          "type": "uint256"
        },
        {
          "internalType": "string",
          "name": "name",
          "type": "string"
        }
      ],
      "stateMutability": "view",
      "type": "function"
    },
    {
      "inputs": [
        {
          "internalType": "uint256",
          "name": "",
          "type": "uint256"
        }
      ],
      "name": "users",
      "outputs": [
        {
          "internalType": "uint256",
          "name": "age",
          "type": "uint256"
        },
        {
          "internalType": "string",
          "name": "name",
          "type": "string"
        }
      ],
      "stateMutability": "view",
      "type": "function"
    }
  ],
  "bytecode": "60116080818152610100604052600f60c08181526e53616d62686176204b61757368696b60881b60e090815260a0919091526001938455919291610046916002919061005b565b50505034801561005557600080fd5b5061012f565b828054610067906100f4565b90600052602060002090601f01602090048101928261008957600085556100cf565b82601f106100a257805160ff19168380011785556100cf565b828001600101855582156100cf579182015b828111156100cf5782518255916020019190600101906100b4565b506100db9291506100df565b5090565b5b808211156100db57600081556001016100e0565b60028104600182168061010857607f821691505b6020821081141561012957634e487b7160e01b600052602260045260246000fd5b50919050565b6105ae8061013e6000396000f3fe608060405234801561001057600080fd5b506004361061007d5760003560e01c806390c3ee4d1161005b57806390c3ee4d146100d4578063a6b7fc5b146100e7578063d51af2bf146100ef578063d9fe7657146101045761007d565b8063365b98b21461008257806346cb59c2146100ac5780636057361d146100b4575b600080fd5b61009561009036600461043b565b610117565b6040516100a39291906104bd565b60405180910390f35b6100956101cf565b6100c76100c236600461043b565b6101e3565b6040516100a391906104b4565b6100c76100e2366004610400565b6101eb565b6100c7610208565b6101026100fd366004610453565b61020e565b005b61009561011236600461043b565b6102bd565b6003818154811061012757600080fd5b6000918252602090912060029091020180546001820180549193509061014c90610527565b80601f016020809104026020016040519081016040528092919081815260200182805461017890610527565b80156101c55780601f1061019a576101008083540402835291602001916101c5565b820191906000526020600020905b8154815290600101906020018083116101a857829003601f168201915b5050505050905082565b600180546002805491929161014c90610527565b600081905590565b805160208183018101805160048252928201919093012091525481565b60005490565b60408051808201909152828152602080820183815260038054600181018255600091909152835160029091027fc2575a0e9e593c00f959f8c92f12db2869c3395a3b0502d05e2516446f71f85b8101918255915180519193610295937fc2575a0e9e593c00f959f8c92f12db2869c3395a3b0502d05e2516446f71f85c01929101906102e6565b505050816004826040516102a99190610498565b908152604051908190036020019020555050565b600581600181106102cd57600080fd5b6002020180546001820180549193509061014c90610527565b8280546102f290610527565b90600052602060002090601f016020900481019282610314576000855561035a565b82601f1061032d57805160ff191683800117855561035a565b8280016001018555821561035a579182015b8281111561035a57825182559160200191906001019061033f565b5061036692915061036a565b5090565b5b80821115610366576000815560010161036b565b600082601f83011261038f578081fd5b813567ffffffffffffffff808211156103aa576103aa610562565b604051601f8301601f1916810160200182811182821017156103ce576103ce610562565b6040528281528483016020018610156103e5578384fd5b82602086016020830137918201602001929092529392505050565b600060208284031215610411578081fd5b813567ffffffffffffffff811115610427578182fd5b6104338482850161037f565b949350505050565b60006020828403121561044c578081fd5b5035919050565b60008060408385031215610465578081fd5b82359150602083013567ffffffffffffffff811115610482578182fd5b61048e8582860161037f565b9150509250929050565b600082516104aa8184602087016104f7565b9190910192915050565b90815260200190565b60008382526040602083015282518060408401526104e28160608501602087016104f7565b601f01601f1916919091016060019392505050565b60005b838110156105125781810151838201526020016104fa565b83811115610521576000848401525b50505050565b60028104600182168061053b57607f821691505b6020821081141561055c57634e487b7160e01b600052602260045260246000fd5b50919050565b634e487b7160e01b600052604160045260246000fdfea2646970667358221220d6fe73edfc84eda85524d1ab2918351f2247a37284ce5c53346023dc97ac500a64736f6c63430008000033",
  "bytecodeSha1": "0e34799067970f464b33c9a4a7b2a9624fcf1842",
  "compiler": {
    "evm_version": "istanbul",
    "optimizer": {
      "enabled": true,
      "runs": 200
    },
    "version": "0.8.0+commit.c7dfd78e"
  },
  "contractName": "SimpleStorage",
  "language": "Solidity",
  "natspec": {
    "kind": "dev",
    "methods": {},
    "version": 1
  },
  "opcodes": "PUSH1 0x80 PUSH1 0x40 MSTORE CALLVALUE DUP1 ISZERO PUSH2 0x10 JUMPI PUSH1 0x0 DUP1 REVERT JUMPDEST POP PUSH1 0x4 CALLDATASIZE LT PUSH2 0x7D JUMPI PUSH1 0x0 CALLDATALOAD PUSH1 0xE0 SHR DUP1 PUSH4 0x90C3EE4D GT PUSH2 0x5B JUMPI DUP1 PUSH4 0x90C3EE4D EQ PUSH2 0xD4 JUMPI DUP1 PUSH4 0xA6B7FC5B EQ PUSH2 0xE7 JUMPI DUP1 PUSH4 0xD51AF2BF EQ PUSH2 0xEF JUMPI DUP1 PUSH4 0xD9FE7657 EQ PUSH2 0x104 JUMPI PUSH2 0x7D JUMP JUMPDEST DUP1 PUSH4 0x365B98B2 EQ PUSH2 0x82 JUMPI DUP1 PUSH4 0x46CB59C2 EQ PUSH2 0xAC JUMPI DUP1 PUSH4 0x6057361D EQ PUSH2 0xB4 JUMPI JUMPDEST PUSH1 0x0 DUP1 REVERT JUMPDEST PUSH2 0x95 PUSH2 0x90 CALLDATASIZE PUSH1 0x4 PUSH2 0x43B JUMP JUMPDEST PUSH2 0x117 JUMP JUMPDEST PUSH1 0x40 MLOAD PUSH2 0xA3 SWAP3 SWAP2 SWAP1 PUSH2 0x4BD JUMP JUMPDEST PUSH1 0x40 MLOAD DUP1 SWAP2 SUB SWAP1 RETURN JUMPDEST PUSH2 0x95 PUSH2 0x1CF JUMP JUMPDEST PUSH2 0xC7 PUSH2 0xC2 CALLDATASIZE PUSH1 0x4 PUSH2 0x43B JUMP JUMPDEST PUSH2 0x1E3 JUMP JUMPDEST PUSH1 0x40 MLOAD PUSH2 0xA3 SWAP2 SWAP1 PUSH2 0x4B4 JUMP JUMPDEST PUSH2 0xC7 PUSH2 0xE2 CALLDATASIZE PUSH1 0x4 PUSH2 0x400 JUMP JUMPDEST PUSH2 0x1EB JUMP JUMPDEST PUSH2 0xC7 PUSH2 0x208 JUMP JUMPDEST PUSH2 0x102 PUSH2 0xFD CALLDATASIZE PUSH1 0x4 PUSH2 0x453 JUMP JUMPDEST PUSH2 0x20E JUMP JUMPDEST STOP JUMPDEST PUSH2 0x95 PUSH2 0x112 CALLDATASIZE PUSH1 0x4 PUSH2 0x43B JUMP JUMPDEST PUSH2 0x2BD JUMP JUMPDEST PUSH1 0x3 DUP2 DUP2 SLOAD DUP2 LT PUSH2 0x127 JUMPI PUSH1 0x0 DUP1 REVERT JUMPDEST PUSH1 0x0 SWAP2 DUP3 MSTORE PUSH1 0x20 SWAP1 SWAP2 KECCAK256 PUSH1 0x2 SWAP1 SWAP2 MUL ADD DUP1 SLOAD PUSH1 0x1 DUP3 ADD DUP1 SLOAD SWAP2 SWAP4 POP SWAP1 PUSH2 0x14C SWAP1 PUSH2 0x527 JUMP JUMPDEST DUP1 PUSH1 0x1F ADD PUSH1 0x20 DUP1 SWAP2 DIV MUL PUSH1 0x20 ADD PUSH1 0x40 MLOAD SWAP1 DUP2 ADD PUSH1 0x40 MSTORE DUP1 SWAP3 SWAP2 SWAP1 DUP2 DUP2 MSTORE PUSH1 0x20 ADD DUP3 DUP1 SLOAD PUSH2 0x178 SWAP1 PUSH2 0x527 JUMP JUMPDEST DUP1 ISZERO PUSH2 0x1C5 JUMPI DUP1 PUSH1 0x1F LT PUSH2 0x19A JUMPI PUSH2 0x100 DUP1 DUP4 SLOAD DIV MUL DUP4 MSTORE SWAP2 PUSH1 0x20 ADD SWAP2 PUSH2 0x1C5 JUMP JUMPDEST DUP3 ADD SWAP2 SWAP1 PUSH1 0x0 MSTORE PUSH1 0x20 PUSH1 0x0 KECCAK256 SWAP1 JUMPDEST DUP2 SLOAD DUP2 MSTORE SWAP1 PUSH1 0x1 ADD SWAP1 PUSH1 0x20 ADD DUP1 DUP4 GT PUSH2 0x1A8 JUMPI DUP3 SWAP1 SUB PUSH1 0x1F AND DUP3 ADD SWAP2 JUMPDEST POP POP POP POP POP SWAP1 POP DUP3 JUMP JUMPDEST PUSH1 0x1 DUP1 SLOAD PUSH1 0x2 DUP1 SLOAD SWAP2 SWAP3 SWAP2 PUSH2 0x14C SWAP1 PUSH2 0x527 JUMP JUMPDEST PUSH1 0x0 DUP2 SWAP1 SSTORE SWAP1 JUMP JUMPDEST DUP1 MLOAD PUSH1 0x20 DUP2 DUP4 ADD DUP2 ADD DUP1 MLOAD PUSH1 0x4 DUP3 MSTORE SWAP3 DUP3 ADD SWAP2 SWAP1 SWAP4 ADD KECCAK256 SWAP2 MSTORE SLOAD DUP2 JUMP JUMPDEST PUSH1 0x0 SLOAD SWAP1 JUMP JUMPDEST PUSH1 0x40 DUP1 MLOAD DUP1 DUP3 ADD SWAP1 SWAP2 MSTORE DUP3 DUP2 MSTORE PUSH1 0x20 DUP1 DUP3 ADD DUP4 DUP2 MSTORE PUSH1 0x3 DUP1 SLOAD PUSH1 0x1 DUP2 ADD DUP3 SSTORE PUSH1 0x0 SWAP2 SWAP1 SWAP2 MSTORE DUP4 MLOAD PUSH1 0x2 SWAP1 SWAP2 MUL PUSH32 0xC2575A0E9E593C00F959F8C92F12DB2869C3395A3B0502D05E2516446F71F85B DUP2 ADD SWAP2 DUP3 SSTORE SWAP2 MLOAD DUP1 MLOAD SWAP2 SWAP4 PUSH2 0x295 SWAP4 PUSH32 0xC2575A0E9E593C00F959F8C92F12DB2869C3395A3B0502D05E2516446F71F85C ADD SWAP3 SWAP2 ADD SWAP1 PUSH2 0x2E6 JUMP JUMPDEST POP POP POP DUP2 PUSH1 0x4 DUP3 PUSH1 0x40 MLOAD PUSH2 0x2A9 SWAP2 SWAP1 PUSH2 0x498 JUMP JUMPDEST SWAP1 DUP2 MSTORE PUSH1 0x40 MLOAD SWAP1 DUP2 SWAP1 SUB PUSH1 0x20 ADD SWAP1 KECCAK256 SSTORE POP POP JUMP JUMPDEST PUSH1 0x5 DUP2 PUSH1 0x1 DUP2 LT PUSH2 0x2CD JUMPI PUSH1 0x0 DUP1 REVERT JUMPDEST PUSH1 0x2 MUL ADD DUP1 SLOAD PUSH1 0x1 DUP3 ADD DUP1 SLOAD SWAP2 SWAP4 POP SWAP1 PUSH2 0x14C SWAP1 PUSH2 0x527 JUMP JUMPDEST DUP3 DUP1 SLOAD PUSH2 0x2F2 SWAP1 PUSH2 0x527 JUMP JUMPDEST SWAP1 PUSH1 0x0 MSTORE PUSH1 0x20 PUSH1 0x0 KECCAK256 SWAP1 PUSH1 0x1F ADD PUSH1 0x20 SWAP1 DIV DUP2 ADD SWAP3 DUP3 PUSH2 0x314 JUMPI PUSH1 0x0 DUP6 SSTORE PUSH2 0x35A JUMP JUMPDEST DUP3 PUSH1 0x1F LT PUSH2 0x32D JUMPI DUP1 MLOAD PUSH1 0xFF NOT AND DUP4 DUP1 ADD OR DUP6 SSTORE PUSH2 0x35A JUMP JUMPDEST DUP3 DUP1 ADD PUSH1 0x1 ADD DUP6 SSTORE DUP3 ISZERO PUSH2 0x35A JUMPI SWAP2 DUP3 ADD JUMPDEST DUP3 DUP2 GT ISZERO PUSH2 0x35A JUMPI DUP3 MLOAD DUP3 SSTORE SWAP2 PUSH1 0x20 ADD SWAP2 SWAP1 PUSH1 0x1 ADD SWAP1 PUSH2 0x33F JUMP JUMPDEST POP PUSH2 0x366 SWAP3 SWAP2 POP PUSH2 0x36A JUMP JUMPDEST POP SWAP1 JUMP JUMPDEST JUMPDEST DUP1 DUP3 GT ISZERO PUSH2 0x366 JUMPI PUSH1 0x0 DUP2 SSTORE PUSH1 0x1 ADD PUSH2 0x36B JUMP JUMPDEST PUSH1 0x0 DUP3 PUSH1 0x1F DUP4 ADD SLT PUSH2 0x38F JUMPI DUP1 DUP2 REVERT JUMPDEST DUP2 CALLDATALOAD PUSH8 0xFFFFFFFFFFFFFFFF DUP1 DUP3 GT ISZERO PUSH2 0x3AA JUMPI PUSH2 0x3AA PUSH2 0x562 JUMP JUMPDEST PUSH1 0x40 MLOAD PUSH1 0x1F DUP4 ADD PUSH1 0x1F NOT AND DUP2 ADD PUSH1 0x20 ADD DUP3 DUP2 GT DUP3 DUP3 LT OR ISZERO PUSH2 0x3CE JUMPI PUSH2 0x3CE PUSH2 0x562 JUMP JUMPDEST PUSH1 0x40 MSTORE DUP3 DUP2 MSTORE DUP5 DUP4 ADD PUSH1 0x20 ADD DUP7 LT ISZERO PUSH2 0x3E5 JUMPI DUP4 DUP5 REVERT JUMPDEST DUP3 PUSH1 0x20 DUP7 ADD PUSH1 0x20 DUP4 ADD CALLDATACOPY SWAP2 DUP3 ADD PUSH1 0x20 ADD SWAP3 SWAP1 SWAP3 MSTORE SWAP4 SWAP3 POP POP POP JUMP JUMPDEST PUSH1 0x0 PUSH1 0x20 DUP3 DUP5 SUB SLT ISZERO PUSH2 0x411 JUMPI DUP1 DUP2 REVERT JUMPDEST DUP2 CALLDATALOAD PUSH8 0xFFFFFFFFFFFFFFFF DUP2 GT ISZERO PUSH2 0x427 JUMPI DUP2 DUP3 REVERT JUMPDEST PUSH2 0x433 DUP5 DUP3 DUP6 ADD PUSH2 0x37F JUMP JUMPDEST SWAP5 SWAP4 POP POP POP POP JUMP JUMPDEST PUSH1 0x0 PUSH1 0x20 DUP3 DUP5 SUB SLT ISZERO PUSH2 0x44C JUMPI DUP1 DUP2 REVERT JUMPDEST POP CALLDATALOAD SWAP2 SWAP1 POP JUMP JUMPDEST PUSH1 0x0 DUP1 PUSH1 0x40 DUP4 DUP6 SUB SLT ISZERO PUSH2 0x465 JUMPI DUP1 DUP2 REVERT JUMPDEST DUP3 CALLDATALOAD SWAP2 POP PUSH1 0x20 DUP4 ADD CALLDATALOAD PUSH8 0xFFFFFFFFFFFFFFFF DUP2 GT ISZERO PUSH2 0x482 JUMPI DUP2 DUP3 REVERT JUMPDEST PUSH2 0x48E DUP6 DUP3 DUP7 ADD PUSH2 0x37F JUMP JUMPDEST SWAP2 POP POP SWAP3 POP SWAP3 SWAP1 POP JUMP JUMPDEST PUSH1 0x0 DUP3 MLOAD PUSH2 0x4AA DUP2 DUP5 PUSH1 0x20 DUP8 ADD PUSH2 0x4F7 JUMP JUMPDEST SWAP2 SWAP1 SWAP2 ADD SWAP3 SWAP2 POP POP JUMP JUMPDEST SWAP1 DUP2 MSTORE PUSH1 0x20 ADD SWAP1 JUMP JUMPDEST PUSH1 0x0 DUP4 DUP3 MSTORE PUSH1 0x40 PUSH1 0x20 DUP4 ADD MSTORE DUP3 MLOAD DUP1 PUSH1 0x40 DUP5 ADD MSTORE PUSH2 0x4E2 DUP2 PUSH1 0x60 DUP6 ADD PUSH1 0x20 DUP8 ADD PUSH2 0x4F7 JUMP JUMPDEST PUSH1 0x1F ADD PUSH1 0x1F NOT AND SWAP2 SWAP1 SWAP2 ADD PUSH1 0x60 ADD SWAP4 SWAP3 POP POP POP JUMP JUMPDEST PUSH1 0x0 JUMPDEST DUP4 DUP2 LT ISZERO PUSH2 0x512 JUMPI DUP2 DUP2 ADD MLOAD DUP4 DUP3 ADD MSTORE PUSH1 0x20 ADD PUSH2 0x4FA JUMP JUMPDEST DUP4 DUP2 GT ISZERO PUSH2 0x521 JUMPI PUSH1 0x0 DUP5 DUP5 ADD MSTORE JUMPDEST POP POP POP POP JUMP JUMPDEST PUSH1 0x2 DUP2 DIV PUSH1 0x1 DUP3 AND DUP1 PUSH2 0x53B JUMPI PUSH1 0x7F DUP3 AND SWAP2 POP JUMPDEST PUSH1 0x20 DUP3 LT DUP2 EQ ISZERO PUSH2 0x55C JUMPI PUSH4 0x4E487B71 PUSH1 0xE0 SHL PUSH1 0x0 MSTORE PUSH1 0x22 PUSH1 0x4 MSTORE PUSH1 0x24 PUSH1 0x0 REVERT JUMPDEST POP SWAP2 SWAP1 POP JUMP JUMPDEST PUSH4 0x4E487B71 PUSH1 0xE0 SHL PUSH1 0x0 MSTORE PUSH1 0x41 PUSH1 0x4 MSTORE PUSH1 0x24 PUSH1 0x0 REVERT INVALID LOG2 PUSH5 0x6970667358 0x22 SLT KECCAK256 0xD6 INVALID PUSH20 0xEDFC84EDA85524D1AB2918351F2247A37284CE5C MSTORE8 CALLVALUE PUSH1 0x23 0xDC SWAP8 0xAC POP EXP PUSH5 0x736F6C6343 STOP ADDMOD STOP STOP CALLER ",
  "sha1": "66bd086c78c728a7e9d65f6510eb62bdb2e82c1b",
  "source": "// SPDX-License-Identifier: MIT\n\npragma solidity ^0.8.0; // version\n\ncontract SimpleStorage {\n    // this will be initialized to 0\n    uint256 internal favoriteNumber; // index 0\n\n    //------------------------------------------------------------------------------------------\n    //creating a function to update favoriteNumber\n    function store(uint256 _fav_num_) public returns(uint256) {\n        favoriteNumber = _fav_num_;\n        return favoriteNumber;\n    }\n\n    //------------------------------------------------------------------------------------------\n    //view-> we are not making transactions we are only reading the value and pure-> cannot access the evironment variables and can only perform some pure maths\n    function retrive() public view returns (uint256) {\n        return favoriteNumber;\n    }\n\n    //------------------------------------------------------------------------------------------\n    // creating a custom data type\n    struct People {\n        uint256 age; // index 0\n        string name; // index 1\n    }\n    //creating a new variable using custom datatype\n    People public person1 = People({age: 17, name: \"Sambhav Kaushik\"});\n    //------------------------------------------------------------------------------------------\n    // dynamic array\n    People[] public users;\n    //mapping\n    mapping(string => uint256) public nameToAge;\n    // fixed array-1\n    People[1] public unique;\n\n    // function to add a user to the array\n    // memory(keyword) is used to store the data only when function is being executed\n    // storage(keyword) is used to store the data even after the function is executed\n    //string is solidity is not value type, it is actualy an array of bytes so we have to store it some where\n    function addUser(uint256 _age, string memory _name) public {\n        users.push(People({age: _age, name: _name}));\n        nameToAge[_name] = _age;\n    }\n    //------------------------------------------------------------------------------------------\n}",
  "sourcePath": "contracts/SimpleStorage.sol",
  "type": "contract"
}